:020000040800F2
:1000000000000220E98A01087D0D00087F0D00082C
:10001000810D0008830D0008850D00080000000018
:10002000000000000000000000000000AD620108B8
:10003000870D00080000000069630108A72F010870
:10004000398B0108398B0108398B0108398B01087C
:10005000398B0108398B0108398B0108398B01086C
:10006000398B0108398B0108398B0108398B01085C
:10007000398B0108398B0108398B0108398B01084C
:10008000398B0108398B0108398B0108398B01083C
:10009000398B0108398B0108398B0108398B01082C
:1000A000398B0108398B0108398B0108398B01081C
:1000B000398B0108398B0108398B0108398B01080C
:1000C000398B0108398B0108398B0108398B0108FC
:1000D000398B0108398B0108398B0108398B0108EC
:1000E000398B0108398B0108398B0108398B0108DC
:1000F000398B0108890D0008398B0108398B0108FB
:10010000398B0108398B0108398B0108398B0108BB
:10011000398B0108398B0108398B0108398B0108AB
:10012000398B0108398B0108398B0108398B01089B
:10013000398B01080000000000000000398B010825
:10014000398B0108398B0108398B0108A10D000892
:10015000398B0108398B0108398B0108398B01086B
:10016000398B0108398B0108398B0108398B01085B
:10017000398B0108398B0108398B01080000000018
:1001800000000000398B01080000000000000000A2
:10019000398B01080000000000000000398B0108C5
:1001A000000000000000000000000000398B010882
:1001B000398B0108398B0108398B0108398B01080B
:0401C000398B01086E
:1001D00010B5054C237833B9044B13B10448AFF381
:1001E00000800123237010BD4404002000000000A3
:1001F000408B010808B5034B1BB103490348AFF31B
:10020000008008BD0000000048040020408B010869
:10021000A3F5803A704700BF174B002B08BF134B64
:100220009D46FFF7F5FF00218B460F461348144A01
:10023000121A18F021FB0E4B002B00D098470D4BE3
:10024000002B00D098470020002104000D000D482D
:10025000002802D00C4818F0D1FB18F0E9FA200071
:10026000290000F09DF818F0D3FA00BF0000080044
:100270000000000000000000000000004404002016
:1002800038500020FD890108098A010808B5026874
:10029000034B9A4200D008BD00F03EFEFBE700BFD2
:1002A0000020004072B6FEE700B595B03422002170
:1002B00007A818F0E1FA002302930393049305932F
:1002C00006930093244A116C41F080511164126C22
:1002D00002F080520092009A0193204B1A6842F477
:1002E00040421A601B6803F440430193019B0123C1
:1002F00007934FF48033089302230D934FF4800249
:100300000E9219220F924FF4B47210921193072299
:100310001292139307A806F08BF8B0B90CF0F0FF17
:10032000A8B90F23029302230393002304934FF4ED
:10033000A05305934FF480530693052102A80FF0B4
:1003400079F830B915B05DF804FBFFF7ABFFFFF7A4
:10035000A9FFFFF7A7FF00BF003802400070004070
:1003600000B599B05C22002101A818F085FA4FF47D
:100370004073019319230793C023089302230A9320
:100380000423099301230C934FF00063169301A8F3
:1003900005F002FA10B919B05DF804FBFFF782FF0F
:1003A00008B500F09FFDFFF77FFFFFF7D9FF00F0D2
:1003B0003FF800F0A1F800F0BBF900F007FA00F0F8
:1003C0002BFB00F033FA00F0E5FB12F0F8FD00F033
:1003D0001FF812F02DFEFEE708B50A494B691A0412
:1003E00002F00042DB4303F4004313438B616423B8
:1003F0000F22054905480DF0DFFB4FF4FA7013F0AA
:10040000D9F8EAE700040240AC8C01081406002089
:1004100008B5044A0021044812F0B2FE034B1860EC
:1004200008BD00BF408C0108D9030008600400200B
:10043000F0B58DB0002406940794089409940A94AA
:100440000B942A4B1A6B42F004021A631A6B02F0E7
:1004500004020592059A1A6B42F080021A631A6B25
:1004600002F080020492049A1A6B42F001021A63AD
:100470001A6B02F001020392039A1A6B42F0020215
:100480001A631A6B02F002020292029A1A6B42F08D
:1004900008021A631B6B03F008030193019B144DC0
:1004A0004FF44023AB61134E4FF00043B3614FF460
:1004B000C043069306A9284601F02AF80C230693A8
:1004C00001270797089409940A9406A9284601F081
:1004D0001FF84FF4004306930797089409940A9471
:1004E00006A9304601F014F80DB0F0BD0038024006
:1004F000000802400004024008B50B480B4B0360A3
:100500000B4B436000238360C3604FF48042026161
:1005100043618361C361036201F0CBFD00B908BD93
:10052000FFF7C0FEFBE700BF64040020005400405A
:10053000A086010030B589B000230393049305938E
:10054000069307930268144B9A4201D009B030BD5C
:1005500000250195114C236B43F002032363236BA9
:1005600003F002030193019BC0230393122304931E
:10057000032306930423079303A9094800F082FD8F
:100580000295236C43F400132364236C03F40013DB
:100590000293029BDAE700BF00540040003802409B
:1005A0000004024002680A4B9A4200D0704710B51E
:1005B000084A136C23F400131364074C40212046AF
:1005C00000F04CFE8021204600F048FE10BD00BF28
:1005D00000540040003802400004024008B50E48B4
:1005E0000E4B0360002343608360C3604FF40062DE
:1005F00002614361836107F071FA30B94FF4006121
:10060000054807F0EFFA18B908BDFFF74BFEF5E70C
:10061000FFF748FEF8E700BFB8040020002C0140B7
:10062000F0B58BB0002305930693079308930993C5
:100630000268294B9A4201D00BB0F0BD002401940E
:1006400003F586335A6C42F400625A645A6C02F421
:1006500000620192019A02941A6B42F002021A633C
:100660001A6B02F002020292029A03941A6B42F091
:1006700004021A631A6B02F004020392039A0494B0
:100680001A6B42F008021A631B6B03F00803049311
:10069000049B0723059302270697032608960C253B
:1006A000099505A90D4800F0EDFC4FF41063059382
:1006B000069707940896099505A9094800F0E2FCF9
:1006C00004230593069707940896099505A90548FC
:1006D00000F0D8FCB0E700BF002C0140000402404D
:1006E00000080240000C024008B502680B4B9A4219
:1006F00000D008BD0A4A536C23F4006353640721F9
:10070000084800F0ABFD4FF41061074800F0A6FD6B
:100710000421064800F0A2FDEBE700BF002C0140D9
:10072000003802400004024000080240000C024071
:1007300010B592B02822002108A818F09DF80024D6
:100740000294039404940594069407941C4B5A6CE9
:1007500042F480525A645A6C02F480520192019A17
:100760001A6B42F001021A631B6B03F00103009342
:10077000009BE023029302230393032304930523A6
:10078000079302A90F4800F0C3FE08944FF4827348
:1007900009930A940B940C944FF400730D930E94E8
:1007A0000F9410940A231193074C08A9204607F0D0
:1007B000C9FC636823F01003636012B010BD00BF72
:1007C00000380240000002400030014000B58DB00A
:1007D0002422002103A818F04FF80023019302936C
:1007E00011484FF080420260436083604FF0FF3257
:1007F000C26003618361012303930593099303A9F5
:1008000008F064FE50B900230193029301A9064841
:100810000CF020FC28B90DB05DF804FBFFF742FD99
:10082000F1E7FFF73FFDF6E73C05002000B58DB08E
:100830002422002103A818F01FF80023019302933B
:100840001248134A8264C36403654FF6FF7242651F
:100850008365C3650366012303930593099303A985
:10086000483008F033FE50B900230193029301A9E8
:1008700008480CF0EFFB28B90DB05DF804FBFFF75A
:1008800011FDF1E7FFF70EFDF6E700BF3C05002084
:10089000000401408405002070B58AB00023059350
:1008A00006930793089309930368B3F1804F04D02C
:1008B000324A934238D00AB070BD0024009403F548
:1008C0000E331A6C42F001021A641A6C02F0010233
:1008D0000092009A01941A6B42F001021A631A6B9B
:1008E00002F001020192019A02941A6B42F0020294
:1008F0001A631B6B03F002030293029B4FF4004345
:100900000593022606960125099505A91C4800F0C5
:10091000B9FB08230593069607940894099505A941
:10092000184800F0AFFBC6E700240394164B5A6C3E
:1009300042F002025A645A6C02F002020392039AD5
:1009400004941A6B42F004021A631B6B03F0040355
:100950000493049BC0230593022306930323099366
:1009600005A90A4800F08EFB224605212D200CF037
:100970008BFD2D200CF0C0FD9DE700BF0004014061
:10098000000002400004024000380240000802401B
:100990000268094B9A4200D0704782B0002301934D
:1009A000064B1A6C42F008021A641B6C03F0080331
:1009B0000193019B02B07047000C004000380240D8
:1009C00000B587B00023019302930393049305932A
:1009D00002680E4B9A4202D007B05DF804FB002378
:1009E00000930B4B1A6B42F001021A631B6B03F06E
:1009F00001030093009B0F230193022302930593AD
:100A000001A9044800F03EFBE6E700BF000C0040EF
:100A1000003802400000024000B58FB000230A9366
:100A20000B930C930D9308930993019302930393F3
:100A300004930593069307933348344AC0F89020F3
:100A4000C0F89430C0F898304FF0FF32C0F89C20C6
:100A5000C0F8A030C0F8A830903008F059FC002849
:100A600039D14FF480530A930AA9294809F007F8AD
:100A7000002833D1264808F0A3FC002831D10023F8
:100A80000893099308A922480CF0E4FA60BB60239C
:100A90000193002202920392059201A91C4808F0DA
:100AA000D8FD20BB04220DEB0201194808F0D1FD4E
:100AB00000BB082201A9164808F0CBFDE8B90C22BA
:100AC00001A9134808F0C5FDD0B91148FFF778FF18
:100AD0000FB05DF804FBFFF7E5FBC2E7FFF7E2FBB1
:100AE000C8E7FFF7DFFBCAE7FFF7DCFBCFE7FFF75D
:100AF000D9FBD7E7FFF7D6FBDBE7FFF7D3FBDEE752
:100B0000FFF7D0FBE1E700BF3C050020000C0040F0
:100B1000CC05002008B50368B3F1804F03D0104A1C
:100B200093420FD008BD0F4A136C23F001031364E6
:100B30004FF400410C4800F091FB08210B4800F0F5
:100B40008DFBEFE702F59A32536C23F002035364F6
:100B5000C021074800F082FB2D200CF0DBFCE1E710
:100B6000000401400038024000000240000402403E
:100B7000000802400268054B9A4200D07047044AC0
:100B8000136C23F008031364F8E700BF000C004067
:100B90000038024008B50A480A4B03604FF4E133BD
:100BA000436000238360C36003610C224261836160
:100BB000C3610CF0FEFE00B908BDFFF773FBFBE755
:100BC000140600200010014000B589B000230393F3
:100BD0000493059306930793026803F1804303F59A
:100BE00088339A4202D009B05DF804FB00210191DC
:100BF00003F594335A6C42F010025A645A6C02F0B6
:100C000010020192019A02911A6B42F001021A63DA
:100C10001B6B03F001030293029B4FF4C063039329
:100C200002230493032306930723079303A902488F
:100C300000F028FAD7E700BF0000024008B50268BC
:100C4000074B9A4200D008BD064A536C23F01003AC
:100C500053644FF4C061044800F000FBF3E700BFA9
:100C600000100140003802400000024000B583B08F
:100C7000002200920D4B596C41F480415964596C2B
:100C800001F48041009100990192196C41F080516A
:100C900019641B6C03F080530193019B0F216FF0CB
:100CA00001000CF0F1FB03B05DF804FB00380240DA
:100CB00030B589B0044600230193214B1A6C42F4ED
:100CC00080721A641B6C03F480730193019B02A968
:100CD00003A80EF0EBFC069BCBB90EF061FC0346BB
:100CE0001848A0FB03239B0C013B1748174A0260DE
:100CF00040F2E732C2604360002303618360836196
:100D000008F006FB054630B1284609B030BD0EF0AC
:100D100047FC4300E4E70C4807F060FC0546002868
:100D2000F2D12D200CF0E8FB0F2C01D90125EBE7C7
:100D3000002221462D200CF0A7FB054B1C60E3E7A9
:100D40000038024083DE1B4358060020002000408C
:100D50000C000020034B1A68D36823F00103D36012
:100D6000704700BF58060020034B1A68D36843F051
:100D70000103D360704700BF58060020FEE7FEE77E
:100D8000FEE7FEE7FEE7704708B5034808F033F9D1
:100D9000024808F030F908BD8405002058060020FC
:100DA000704700BF034AD2F8883043F47003C2F89A
:100DB0008830704700ED00E0224B9B6803F00C0385
:100DC000042B14D0082B16D01BB11F4B1F4A1A60DE
:100DD00002E01D4B1D4A1A601A4B9B68C3F30313B4
:100DE0001B4AD15C184A1368CB4013607047164BFE
:100DF000184A1A60F0E7134B59685A6802F03F022C
:100E000011F4800F13D0134BB3FBF2F30D4A526869
:100E1000C2F3881202FB03F30A4A5268C2F301428A
:100E200001325200B3FBF2F3074A1360D4E7074BD9
:100E3000B3FBF2F3034A5268C2F3881202FB03F3D6
:100E4000EAE700BF00380240040000200024F4005C
:100E5000648C010840787D01088D010800000020A5
:100E6000440400204404002038500020704770479C
:100E700010B5094B4FF0FF321A6200241C625A620F
:100E80005C621A611C615A615C619A619C61FFF746
:100E9000EEFF204610BD00BF0038024010B50446EA
:100EA0000E4B18784FF47A73B3FBF0F30C4A1068CA
:100EB000B0FBF3F00CF052FB68B90F2C01D9012004
:100EC0000AE0002221464FF0FF300CF0DDFA034B20
:100ED0005C60002000E0012010BD00BF0800002081
:100EE0000400002008B50B4B1A6842F400721A6027
:100EF0001A6842F480621A601A6842F480721A60BA
:100F000003200CF0AFFA0520FFF7D2FEFFF7AEFE8C
:100F1000002008BD003C0240034A1168034B1B78C7
:100F20000B441360704700BFA0060020080000209B
:100F3000014B1868704700BFA0060020014B58689D
:100F4000704700BF0800002010B5074B1C78844292
:100F500001D1002010BD18705868FFF7A9FE0028C5
:100F6000F8D0014B1C70F5E708000020014B187801
:100F7000704700BF0800002038B50446FFF7D8FFCF
:100F80000546B4F1FF3F02D0044B1B781C44FFF729
:100F9000CFFF401BA042FAD338BD00BF080000209D
:100FA0004FF0E022136923F00203136170474FF002
:100FB000E022136943F00203136170470048704751
:100FC00000010801014B1868000C7047002004E084
:100FD000024B1868C0F30B00704700BF002004E00C
:100FE000024A536843F0010353607047002004E055
:100FF000024A536823F0010353607047002004E065
:10100000024A536843F0020353607047002004E033
:10101000024A536823F0020353607047002004E043
:10102000024A536843F0040353607047002004E011
:10103000024A536823F0040353607047002004E021
:10104000024B0122C3F80024704700BF0000274272
:10105000024B0022C3F80024704700BF0000274263
:10106000014BD3F8100A70470070FF1F014BD3F8F3
:10107000140A70470070FF1F014BD3F8180A70471D
:101080000070FF1F00230F2B00F2DE8070B582B0CE
:1010900060E085685E000324B44025EA0405CC685E
:1010A000B4402C438460456825EA02054C68C4F3CB
:1010B00000129A402A4342605AE0DC08083450F893
:1010C000246003F0070295000F22AA4026EA020ED0
:1010D0000A69AA4042EA0E0240F824205CE0062297
:1010E00000E0002202FA0EF22A430234574D45F87E
:1010F0002420574A94686FEA0C0224EA0C054E68D3
:1011000016F4801F01D04CEA0405514CA560E46838
:1011100002EA04054E6816F4001F01D04CEA0405EB
:101120004B4CE560646802EA04054E6816F4003F23
:1011300001D04CEA0405464C6560246822404D68A5
:1011400015F4803F01D04CEA0402414C2260013387
:101150000F2B77D801229A400C6804EA020C32EA7D
:101160000404F4D14C6804F00304013C012C90D930
:101170004A6802F00302032A09D0C4685D00032212
:10118000AA4024EA02048A68AA402243C2604A684C
:1011900002F00302022A90D004684FEA430E0322B1
:1011A00002FA0EF224EA02044A6802F0030202FA8A
:1011B0000EF2224302604A6812F4403FC7D0002278
:1011C0000192244A546C44F480445464526C02F4F6
:1011D00080420192019A9C08A51C1C4A52F8255095
:1011E00003F003024FEA820E0F2202FA0EF225EA02
:1011F0000205194A90423FF474AF02F580629042B2
:1012000016D002F58062904214D002F580629042BE
:1012100012D002F58062904210D002F580629042B6
:101220000ED002F5806290423FF459AF072259E791
:10123000012257E7022255E7032253E7042251E730
:1012400005224FE702B070BD704700BF0038014073
:10125000003C0140003802400000024000230F2BF8
:1012600000F28980F0B52DE0062500E0002505FAA2
:101270000CFCA44563D004685D004FF0030C0CFA2D
:1012800005FC24EA0C0404604FEAD30E0EF1080EAC
:1012900050F82E4003F00705AE000F25B54024EAB4
:1012A000050440F82E40C46824EA0C04C460446875
:1012B00024EA02024260826822EA0C028260013360
:1012C0000F2B57D801229A4002EA010632EA0104A4
:1012D000F5D14FEA930E0EF10205274C54F8254044
:1012E00003F0030C4FEA8C0C0F2505FA0CF73C4079
:1012F000224DA842BAD005F58065A84215D005F563
:101300008065A84213D005F58065A84211D005F587
:101310008065A8420FD005F58065A8420DD005F57F
:101320008065A842A0D00725A1E701259FE70225F7
:101330009DE703259BE7042599E7052597E7104CD2
:10134000256825EA06052560656825EA06056560C5
:10135000E56825EA0605E560A56825EA0606A660B3
:10136000054E0EF1020456F8245025EA070546F80A
:10137000245080E7F0BD7047003801400000024073
:10138000003C01400369194201D001207047002050
:1013900070470AB1816170470904816170474369F0
:1013A00001EA030221EA030141EA02418161704737
:1013B00082B04FF480330193019B0B430193019B57
:1013C000C361C161019BC361C3690193C36913F424
:1013D000803F02D0002002B070470120FBE7704739
:1013E00008B5054B5B69034200D108BD024B58614B
:1013F000FFF7F5FFF9E700BF003C01403C4B984286
:1014000016D03C4B98421FD03B4B984228D03B4BC8
:10141000984231D03A4B98423AD03A4B984243D016
:10142000394B98424CD0394B984255D001207047E7
:1014300003F560531A6942F001021A611A6922F039
:1014400001021A610020704703F550531A6942F0F7
:1014500002021A611A6922F002021A610020704722
:1014600003F540531A6942F004021A611A6922F026
:1014700004021A610020704703F530531A6942F0E4
:1014800008021A611A6922F008021A6100207047E6
:1014900003F520531A6942F010021A611A6922F00A
:1014A00010021A610020704703F510531A6942F0C8
:1014B00020021A611A6922F020021A610020704786
:1014C00003F500531A6942F040021A611A6922F0CA
:1014D00040021A610020704703F5E0531A6942F098
:1014E00080021A611A6922F080021A610020704796
:1014F000000002400004024000080240000C0240CC
:10150000001002400014024000180240001C02407B
:101510000B6893FAA3F3B3FA83FC56E08D688268F4
:1015200093FAA3F4B4FA84F464004FF0030E0EFAB5
:1015300004F422EA040293FAA3F4B4FA84F46400F3
:1015400005FA04F422438260CC68426822EA03026E
:1015500003FB04F42243426045E093FAA3F2B2FA9B
:1015600082F2072A15D84D69026A93FAA3F4B4FAF5
:1015700084F4A4000F2606FA04F422EA040293FA83
:10158000A3F4B4FA84F4A40005FA04F4224302623A
:1015900041E04C69456A1A0A92FAA2FEBEFA8EFE32
:1015A0004FEA8E0E0F2606FA0EFE25EA0E0592FA77
:1015B000A2F2B2FA82F2920004FA02F22A434262E2
:1015C00029E0002070BD0CF1010C0B6833FA0CF21D
:1015D00044D0012202FA0CF21340F4D070B54A68EC
:1015E000013A012A9AD9C26893FAA3F4B4FA84F4AE
:1015F0006400032505FA04F422EA040293FAA3F432
:10160000B4FA84F464000D6905FA04F42243C2605C
:101610004A68022AA1D04A68046893FAA3FEBEFA77
:101620008EFE4FEA4E0E032505FA0EFE24EA0E0E3C
:1016300093FAA3F3B3FA83F35B0002FA03F34EEADF
:10164000030303600CF1010C0B6833FA0CF2B8D001
:10165000012202FA0CF21340F4D0C0E700207047D8
:101660004FF6FF7303600323436000238360C3606E
:1016700003614361704700BF90F83E30DBB2402BFE
:1016800010D00369B3F5804F1BD0036D002B39D107
:10169000436CC3F3C813026803F0060343F0F0037E
:1016A00013617047036D2BB9436C026803F0FE03AE
:1016B00013617047436C026843F00103DBB21361AE
:1016C000704790F83D30DBB2212B0FD0436C02689D
:1016D00043F00103DBB21361436B6BB1DB6B5BB1B6
:1016E0000268536843F4006353607047436C0268B8
:1016F00003F0FE031361EFE7836B33B1DB6B002B69
:10170000EED102E0036D012B00D07047436CC3F3B0
:10171000C813026803F0060343F0F1031361F4E712
:10172000436C0268DBB21361436B3BB1DB6B2BB1E3
:101730000268536843F4006353607047836B002B67
:10174000FBD0DB6B002BF3D1F7E710B48BB090F834
:101750003E30DAB2C16A046B90F83D30DBB2222B26
:101760000BD00023099303685A6909929B69099376
:10177000099B0BB05DF8044B7047036D0BB9402A11
:1017800017D0036D1BB90369B3F5404F19D0438DD2
:101790009BB2002B25D1029303685A6902929A6981
:1017A0000292029A1A6842F400721A6000230365DA
:1017B000DFE7009303685A6900929B690093009BDE
:1017C000D7E70023019303685A6901929A6901924D
:1017D000019A1A6842F480721A60036D013303653E
:1017E000C7E7438D9BB2012B25D0438D9BB2022BC3
:1017F0007BD00268136843F48063136003685A68FF
:1018000012F4006F0ED011F5803F07D0012905D0EA
:10181000082903D0102901D0202903D15A6842F4A5
:1018200080525A600023089303685A6908929B69A2
:101830000893089BBAE711F5803F11D0082934D0EE
:10184000202932D0122C2ED0042940D002293ED09B
:1018500010293CD00268136823F4806313603BE0D6
:101860000268136823F48063136003685A6812F4F3
:10187000006F0CD01A6822F480621A600023039370
:1018800003685A6903929B690393039B8EE70022C6
:1018900004925A6904929A690492049A1A6842F46A
:1018A00000721A6082E70129CED00268136823F41F
:1018B000806313600023069303685A6906929A694D
:1018C0000692069A1A6842F400721A606EE702687D
:1018D000136843F4806313600023059303685A6917
:1018E00005929B690593059B60E704290ED00229A8
:1018F0000CD010290AD00268136823F480631360A7
:101900000268136843F40063136004E0026813681C
:1019100043F48063136003685A6812F4006F0ED0BA
:1019200011F5803F07D0012905D0082903D01029DF
:1019300001D0202903D15A6842F480525A60002312
:10194000079303685A6907929B690793079B2DE7E2
:10195000438D9BB25BB1426A036812781A61436A95
:1019600001334362438D9BB2013B9BB24385704779
:10197000438D9BB25BB103681A69436A1A70436A6C
:1019800001334362438D9BB2013B9BB24385704759
:1019900082B0002301930E4B1B68DB080D4AA2FBAB
:1019A00003231B0A03EB83030193019B013B019378
:1019B000019B33B103681B6813F4007FF5D100204D
:1019C00004E0036C43F020030364012002B070477D
:1019D0000400002089B5F81403685A6912F4806F76
:1019E00001D1002070476FF480625A6100230363C5
:1019F000202280F83D2080F83E30026C42F0040244
:101A0000026480F83C3001207047C36AB3F52A0FA6
:101A100004D0C36AB3F12A4F03D070470123C362D5
:101A200070470823C362F8E72DE9F04107460D46E9
:101A300090461E4624E0FFF77BFA069BC01AB04290
:101A400000D8EEB900233B63202287F83D2087F8B9
:101A50003E303A6C42F020023A6487F83C30012074
:101A60001EE03B689C6925EA040C1FFA8CFCBCFA5A
:101A70008CFC4FEA5C1CE04511D1B6F1FF3FDAD196
:101A8000C5F30743012BECD13B685B6925EA030CE6
:101A90001FFA8CFCBCFA8CFC4FEA5C1CEBE70020C4
:101AA000BDE8F0812DE9F04105460E4617469846FF
:101AB0003DE01A6842F400721A602B686FF480628D
:101AC0005A6100232B63202285F83D2085F83E30A3
:101AD0002A6C42F004022A6485F83C30012034E08C
:101AE000FFF726FAA0EB0800B84200D8FFB90023A0
:101AF0002B63202285F83D2085F83E302A6C42F089
:101B000020022A6485F83C3001201EE02B689C6985
:101B100026EA0404A4B2003C18BF0124A4B12B6837
:101B20005A6912F4806FC4D1B7F1FF3FD8D1C6F320
:101B30000743012BEAD12B685C6926EA0404A4B2AE
:101B4000003C18BF0124E9E70020BDE8F081F0B5B2
:101B500083B004460D4616461F46C36A082B0DD0B7
:101B6000012B0BD013F5803F08D0036B122B0AD149
:101B70000268136843F48073136004E022681368FA
:101B800043F4807313600097334600224FF0011135
:101B90002046FFF749FF80B92369B3F5804F16D17E
:101BA000236805F0FE051D613B4632461349204679
:101BB000FFF778FFF8B903B0F0BD23681B6813F492
:101BC000807F02D04FF4007323640320F3E7EB110E
:101BD000226803F0060343F0F00313613B463246EC
:101BE00007492046FFF75EFF18B92368EDB21D6173
:101BF000DAE70120DFE70120DDE700BF0200010096
:101C0000080001002DE9F04184B004460D46164657
:101C10001F46C26A01680B6843F480630B60082AA0
:101C20000DD0012A0BD012F5803F08D0036B112B89
:101C30000AD10268136843F48073136004E02268D9
:101C4000136843F4807313600097334600224FF00B
:101C500001112046FFF7E8FE98B92369B3F5804FDC
:101C600019D1236845F00105EDB21D613B463246AE
:101C70002A492046FFF716FF00284CD104B0BDE8E2
:101C8000F08123681B6813F4807F02D04FF4007347
:101C900023640320F2E74FEAE51808F006082368FA
:101CA00048F0F0021A613B4632461D492046FFF7D4
:101CB000F9FE08B10120E1E72368EDB21D613B4662
:101CC000324616492046FFF7EDFE08B10120D5E760
:101CD000002203922368596903919969039103993A
:101CE000196841F480711960009733464FF0011173
:101CF0002046FFF799FE20B9226848F0F1031361EE
:101D0000B4E723681B6813F4807F02D04FF400739C
:101D100023640320B2E70120B0E700BF0200010006
:101D20000800010070B504460D46164623685B693D
:101D300013F0800F1CD12046FFF74EFED0B9B5F14D
:101D4000FF3FF3D0FFF7F4F8801BA84201D8002D25
:101D5000ECD100232363202284F83D2084F83E3018
:101D6000226C42F02002226484F83C30012000E022
:101D7000002070BD0120FCE72DE9F04385B004464A
:101D80000D4691461F46DDF830800D9E03681968A8
:101D900041F4807119600096434600224FF0011112
:101DA000FFF742FE60B9236805F0FE051D6133466A
:101DB000424626492046FFF775FE68B1012008E03B
:101DC00023681B6813F4807F02D04FF400732364F0
:101DD000032005B0BDE8F0830023039323685A690C
:101DE00003929B690393039B324641462046FFF7CB
:101DF00099FF30B9012F0FD123685FFA89F61E6170
:101E0000E7E7236C042B01D00120E2E72268136886
:101E100043F400731360F7E723684FEA19221A614D
:101E2000324641462046FFF77DFF20B923685FFA1E
:101E300089F61E61CDE7236C042B01D00120C8E791
:101E40002268136843F400731360F7E7020001008F
:101E50002DE9F04784B004460D46164699460C9F7E
:101E6000DDF834800268136843F48063136003680C
:101E7000196841F480711960CDF800803B4600225A
:101E80004FF00111FFF7D0FD70B95FFA85FA2368B2
:101E900005F0FE051D6143463A4641492046FFF7DD
:101EA00001FE68B1012008E023681B6813F4807FFD
:101EB00002D04FF400732364032004B0BDE8F08720
:101EC0000023039323685A6903929B690393039B3E
:101ED000424639462046FFF725FF80B9B9F1010F88
:101EE00018D12368F6B21E61424639462046FFF7F4
:101EF00019FF68B3236C042B24D00120DDE7236C89
:101F0000042B01D00120D8E72268136843F4007342
:101F10001360F7E72368320A1A61424639462046C1
:101F2000FFF700FF18B92368F6B21E61DCE7236CE7
:101F3000042B01D00120C0E72268136843F400732A
:101F40001360F7E72268136843F400731360D4E763
:101F50002268136843F480731360CDF800803B4619
:101F600000224FF001112046FFF75EFD68B922689C
:101F70004AF00103136143463A4609492046FFF7F8
:101F800091FD002899D0012097E723681B6813F47E
:101F9000807F02D04FF40073236403208DE700BFDD
:101FA0000200010070B504460D46164623685B69C1
:101FB00013F0040F1CD12046FFF70EFDD0B9B5F188
:101FC000FF3FF3D0FEF7B4FF801BA84201D8002DDD
:101FD000ECD100232363202284F83D2084F83E3096
:101FE000226C42F02002226484F83C30012000E0A0
:101FF000002070BD0120FCE770B505460C46164672
:102000002B68596911F0400F29D1596911F0100F4F
:1020100015D1FEF78DFF801BA04201D8002CEFD117
:1020200000232B63202285F83D2085F83E302A6C62
:1020300042F020022A6485F83C30012070BD6FF028
:1020400010025A6100232B63202285F83D2085F879
:102050003E302A6C2A6485F83C300120EEE70020EF
:10206000ECE770B504460D46164623685B6913F02D
:10207000100F19D12046FFF7AFFCB8B9FEF758FF93
:10208000801BA84201D8002DEFD10023236320221A
:1020900084F83D2084F83E30226C42F02002226415
:1020A00084F83C30012070BD0020FCE70120FAE7F5
:1020B0007047002800F0CC8070B5044690F83D30A1
:1020C000002B77D0242384F83D302268136823F056
:1020D000010313602268136843F40043136022680D
:1020E000136823F4004313600DF05AFA62685A4BE8
:1020F0009A4264D8594B98428CBF00230123002B8D
:1021000040F0A8805649A1FB00318B0C25686A6815
:1021100022F03F0242EA91426A6021680A6A22F094
:102120003F0266684C4DAE424FD8013313430B62F9
:102130002168CA6922F44F4222F0FF026668464BCA
:102140009E424CD8431E7600B3FBF6F3013340F6B3
:10215000FC70034278D0C3F30B031343CB612168B7
:102160000B6823F0C003E269206A024313430B604B
:1021700021688B6823F4034323F0FF032269E0689E
:10218000024313438B602168CB6823F0FF0362692D
:10219000A06902431343CB602268136843F0010334
:1021A000136000202064202384F83D30206384F8ED
:1021B0003E0070BD80F83C30FEF7BCF982E7294B49
:1021C00098428CBF0023012399E74FF4967505FBD5
:1021D00003F3254DA5FB03539B090133A6E7A36831
:1021E000BBB9451E06EB460CB5FBFCF50135C5F346
:1021F0000B05B5FA85F56D0945BBC3B9013806EB8A
:102200004603B0FBF3F30133C3F30B0343F4004382
:10221000A3E7451E06EB860C0CEB8C0CB5FBFCF51E
:102220000135C5F30B05B5FA85F56D09E4E701380D
:1022300006EB860303EB8303B0FBF3F30133C3F335
:102240000B0343F4404388E7042386E7012384E734
:10225000012070470120ACE7A08601007F841E00AA
:1022600083DE1B43FF083D00D34D62107047A8B1C9
:1022700010B50446242380F83D300268136823F02B
:1022800001031360FEF78EF90020206484F83D00FE
:10229000206384F83E0084F83C0010BD01207047A4
:1022A0002DE9F04385B004460F46914698460C9EB2
:1022B000FEF73EFE054694F83D00C0B2202804D04B
:1022C0000227384605B0BDE8F083009519230122A6
:1022D0004F492046FFF7A8FB002840F0928094F871
:1022E0003C30012B00F08F80012384F83C302368C0
:1022F0001A6812F0010F03D11A6842F001021A6045
:102300002268136823F400631360212384F83D30AE
:10231000102384F83E3000232364C4F82490A4F8EA
:102320002A80638D23853B4BE3622B463246394638
:102330002046FFF70CFC0746002866D100230393D4
:1023400023685A6903929B690393039B11E0236CF2
:10235000042B01D00127B4E72268136843F400730B
:102360001360F7E72A4631462046FFF71BFE002898
:102370002ED1238D002B36D02A4631462046FFF73A
:10238000D1FC0028E3D1626A236812781A61606A7E
:10239000431C6362618D89B2013989B26185238DE5
:1023A000013B9BB223852268516911F0040FD9D0FB
:1023B000002BD7D043781361636A01336362638D66
:1023C0009BB2013B9BB26385238D013B2385C9E70B
:1023D000236C042B01D0012773E72268136843F4B0
:1023E00000731360F7E72268136843F40073136007
:1023F000202384F83D30002384F83E3084F83C30BC
:102400005FE702275DE702275BE7012759E700BF87
:10241000020010000000FFFF2DE9F04387B00446E2
:102420000F46914698460E9EFEF782FD054694F8AB
:102430003D00C0B2202804D00227384607B0BDE8CE
:10244000F08300951923012289492046FFF7ECFA11
:10245000002840F0458194F83C30012B00F0428187
:10246000012384F83C3023681A6812F0010F03D16D
:102470001A6842F001021A602268136823F40063AC
:102480001360222384F83D30102384F83E3000236B
:102490002364C4F82490A4F82A80638D2385754BA7
:1024A000E3622B46324639462046FFF7ABFB074630
:1024B000002840F01981238D5BB9029323685A6983
:1024C00002929A690292029A1A6842F400721A60A1
:1024D0007AE0012B0FD0022B1FD02268136843F43F
:1024E000806313600023059323685A6905929B69F2
:1024F0000593059B68E02268136823F480631360EA
:102500000023039323685A6903929A690392039AFA
:102510001A6842F400721A6056E02268136823F4C5
:10252000806313602268136843F400631360002320
:10253000049323685A6904929B690493049B43E0C3
:102540002A4631462046FFF757FD002840F0CE804E
:1025500023681A69636A1A70636A01336362238DA0
:10256000013B2385638D9BB2013B9BB263852BE0CE
:1025700000953346002240492046FFF755FA0028CF
:1025800040F0B6802268136843F400731360236838
:102590001A69636A1A70626A531C6362238D013B75
:1025A0002385638D9BB2013B9BB2638523681B69C6
:1025B0005370636A01336362238D013B2385638D0E
:1025C0009BB2013B9BB26385218D00297FD00329FB
:1025D00054D80129B4D00229CAD00095334600222C
:1025E00025492046FFF720FA002840F08380226822
:1025F000136823F48063136023681A69636A1A708E
:10260000636A01336362238D013B2385618D89B247
:10261000013989B26185009533460022164920466A
:10262000FFF702FA002867D12268136843F40073A9
:10263000136023681A69636A1A70626A531C6362C2
:10264000238D013B2385638D9BB2013B9BB2638548
:1026500023681B695370636A01336362238D013BF6
:102660002385638D9BB2013B9BB26385ACE700BFC2
:10267000020010000000FFFF040001002A4631465E
:102680002046FFF7B9FC002838D123681A69636A2D
:102690001A70626A531C6362238D013B2385638D2C
:1026A0009BB2013B9BB263852368596911F0040F0B
:1026B0008AD01B695370636A01336362238D013BC7
:1026C0002385638D9BB2013B9BB263857CE720230E
:1026D00084F83D30002384F83E3084F83C30ACE68A
:1026E0000227AAE60227A8E60127A6E60127A4E614
:1026F0000127A2E60127A0E601279EE601279CE626
:102700002DE9F04184B004460D4690461E46FEF782
:102710000FFC94F83D30DBB2202B40F0AE80074632
:10272000002D00F0AE80B8F1000F00F0AC8094F8FE
:102730003C30012B00F0A980012384F83C30236851
:102740001A6812F0010F03D11A6842F001021A60F0
:102750002268136823F400631360212384F83D305A
:10276000202384F83E30002222646562A4F82A8087
:10277000638D2385494BE36221680B6843F48063D2
:102780000B600097334646492046FFF74DF9002875
:102790007DD10023029323685A6902929B690293B8
:1027A000029B2369B3F5404F33D0238D002B49D0D2
:1027B0003A4631462046FFF7B5FA00283BD1626A17
:1027C000236812781A61626A531C6362B4F82AC0E3
:1027D0001FFA8CFC0CF1FF3C1FFA8CFCA4F82AC0F9
:1027E000258D013DADB225852368596911F0040F8F
:1027F000DBD0002DD9D052781A61636A013363624D
:10280000638D9BB2013B9BB26385238D013B238586
:10281000CBE700973346002221492046FFF704F911
:10282000002836D10023039323685A6903929B69D9
:102830000393039BB9E72268136823F48063136052
:1028400001201BE00097334600224FF482312046DE
:10285000FFF7EAF8F8B923686FF480625A612268DA
:10286000136823F480631360202384F83D30002331
:1028700084F83E3084F83C3000E0022004B0BDE82B
:10288000F0810120FAE70120F8E70220F6E70120B5
:10289000F4E70120F2E70120F0E700BF0000FFFFAE
:1028A000020001002DE9F04184B004460D46904637
:1028B0001E46FEF73DFB94F83D30DBB2202B40F086
:1028C000A0800746002D00F0A080B8F1000F00F0B6
:1028D0009E8094F83C30012B00F09B80012384F80B
:1028E0003C3023681A6812F0010F03D11A6842F0D5
:1028F00001021A602268136823F400631360222324
:1029000084F83D30202384F83E3000222264656242
:10291000A4F82A80638D2385404BE36221680B680D
:1029200043F480630B60009733463D492046FFF730
:102930007BF800286FD10023029323685A69029222
:102940009B690293029B238D002B36D03A46314679
:102950002046FFF751FB48BB23681A69636A1A7067
:10296000636A5A1C6262258D013DADB22585B4F8BB
:102970002AC01FFA8CFC0CF1FF3C1FFA8CFCA4F857
:102980002AC02268516911F0040FDCD0002DDAD082
:1029900012695A70636A01336362238D013B238598
:1029A000638D9BB2013B9BB26385CCE722681368C1
:1029B00023F480631360012024E03A463146204628
:1029C000FFF74FFB30B12268136823F48063136074
:1029D000012017E0002303932268516903911168D5
:1029E00041F001011160039A21680A6822F48062B3
:1029F0000A60202284F83D2084F83E3084F83C3080
:102A000000E0022004B0BDE8F0810120FAE70120D7
:102A1000F8E70220F6E70120F4E700BF0000FFFF1F
:102A20000200010030B482B00024019490F83D40CF
:102A3000E4B2202C56D12E4C2468E4082D4DA5FB81
:102A40000454240A04EB840404EB84040194019CE0
:102A5000013C0194019C002C35D00468A56915F057
:102A6000020FF4D190F83C50012D3FD0012580F8A1
:102A70003C50256815F0010F03D1256845F001058C
:102A8000256005682C6824F400642C60212480F8FB
:102A90003D40102480F83E40002404644262438597
:102AA000438D0385144BC362416480F83C40026847
:102AB000536843F4E06353600268136843F480731F
:102AC000136020460FE000230363202280F83D209E
:102AD00080F83E30026C42F02002026480F83C3004
:102AE000012000E0022002B030BC70470220FAE76B
:102AF0000400002089B5F8140000FFFF30B482B054
:102B00000024019490F83D40E4B2202C5BD1314C7C
:102B10002468E408304DA5FB0454240A04EB840423
:102B200004EB84040194019C013C0194019C002C61
:102B30003AD00468A56915F0020FF4D190F83C5022
:102B4000012D44D0012580F83C50256815F0010F77
:102B500003D1256845F00105256005682C6824F43B
:102B600000642C60222480F83D40102480F83E4010
:102B70000024046442624385438D0385174BC3627E
:102B8000416480F83C400268536843F4E06353605A
:102B90000268136843F4806313600268136843F4A7
:102BA0008073136020460FE000230363202280F827
:102BB0003D2080F83E30026C42F02002026480F832
:102BC0003C30012000E0022002B030BC70470220FF
:102BD000FAE700BF0400002089B5F8140000FFFFE9
:102BE00090F83D30DBB2202B37D1002937D0002AB6
:102BF00037D090F83C30012B35D010B4012380F849
:102C00003C3003681C6814F0010F03D11C6844F0C9
:102C100001041C600468236823F4006323602123FB
:102C200080F83D30202380F83E3000230364416269
:102C30004285428D02850D4AC26201680A6842F4EB
:102C400080620A6080F83C3001684A6842F4E062C1
:102C50004A6018465DF8044B704702207047012017
:102C60007047012070470220704700BF0000FFFF3F
:102C700090F83D30DBB2202B37D1002937D0002A25
:102C800037D090F83C30012B35D010B4012380F8B8
:102C90003C3003681C6814F0010F03D11C6844F039
:102CA00001041C600468236823F40063236022236A
:102CB00080F83D30202380F83E30002303644162D9
:102CC0004285428D02850D4AC26201680A6842F45B
:102CD00080620A6080F83C3001684A6842F4E06231
:102CE0004A6018465DF8044B704702207047012087
:102CF0007047012070470220704700BF0000FFFFAF
:102D000030B583B005460020019095F83D00C0B273
:102D1000202840F0AD8059480068C008584CA4FBFA
:102D20000040000A00EB800000EB80000190019C55
:102D3000013C01940198002851D02868846914F05E
:102D4000020FF4D195F83C40012C00F0948001244E
:102D500085F83C40046814F0010F03D1046844F086
:102D6000010404602C68206820F4006020602120A9
:102D700085F83D00102085F83E00002028646A6236
:102D80006B856B8D9BB22B853E4AEA626964002B92
:102D90005AD06B6B002B31D03B4ADA636B6B3B4AEA
:102DA000DA646A6B10646A6B50646A6B90646A6B75
:102DB00010652A682B8D1032696A686B0CF0E0FD93
:102DC00050B3202385F83D30002285F83E202B6C3F
:102DD00043F010032B6485F83C20012049E00023D8
:102DE0002B63202285F83D2085F83E302A6C42F086
:102DF00020022A6485F83C3001203AE0202385F83F
:102E00003D30002285F83E202B6C43F080032B647C
:102E100085F83C2001202CE0002385F83C302A680E
:102E2000536843F4407353602A68536843F4006363
:102E300053602A68136843F4806313602A68136838
:102E400043F48073136011E02A68136843F48063CD
:102E500013602A68136843F480731360002385F8B5
:102E60003C302A68536843F4E0635360002000E07C
:102E7000022003B030BD0220FBE700BF04000020A9
:102E800089B5F8140000FFFF394E0008F34D000823
:102E900030B583B005460020019095F83D00C0B2E2
:102EA000202840F0AD8059480068C008584CA4FB69
:102EB0000040000A00EB800000EB80000190019CC4
:102EC000013C01940198002851D02868846914F0CD
:102ED000020FF4D195F83C40012C00F094800124BD
:102EE00085F83C40046814F0010F03D1046844F0F5
:102EF000010404602C68206820F400602060222017
:102F000085F83D00102085F83E00002028646A62A4
:102F10006B856B8D9BB22B853E4AEA626964002B00
:102F20005AD0AB6B002B31D03B4ADA63AB6B3B4AD8
:102F3000DA64AA6B1064AA6B5064AA6B9064AA6BE3
:102F4000106529682B8D6A6A1031A86B0CF018FD8A
:102F500050B3202385F83D30002285F83E202B6CAD
:102F600043F010032B6485F83C20012049E0002346
:102F70002B63202285F83D2085F83E302A6C42F0F4
:102F800020022A6485F83C3001203AE0202385F8AD
:102F90003D30002285F83E202B6C43F080032B64EB
:102FA00085F83C2001202CE02A68136843F48063F4
:102FB00013602A68136843F480731360002385F854
:102FC0003C302A68536843F4407353602A6853685E
:102FD00043F40063536011E0002385F83C302A6815
:102FE000536843F4E06353602A68136843F48063D2
:102FF00013602A68136843F480731360002000E0B4
:10300000022003B030BD0220FBE700BF0400002017
:1030100089B5F8140000FFFF394E0008F34D000891
:1030200090F83D30DBB2202B6FD110B5044600295B
:103030006DD0002A6DD090F83C30012B6BD001236D
:1030400080F83C300368186810F0010F03D118684D
:1030500040F0010018602068036823F400630360F7
:10306000212384F83D30202384F83E30002323645C
:1030700061626285638D2385284BE362636B1BB3BA
:10308000274ADA63636B274ADA64626B00231364AE
:10309000626B5364626B9364626B13652268238D69
:1030A0001032616A606B0CF06BFCD8B1202384F89D
:1030B0003D30002284F83E20236C43F0100323644B
:1030C00084F83C20012025E0282384F83D300022AC
:1030D00084F83E20236C43F08003236484F83C2072
:1030E000012017E02268136843F480631360002313
:1030F00084F83C302268536843F44073536022687C
:10310000536843F40063536004E0022070470120D9
:1031100000E0012010BD0220FCE700BF0000FFFF1F
:10312000394E0008F34D000890F83D30DBB2202BFB
:103130006FD110B5044600296DD0002A6DD090F8EB
:103140003C30012B6BD0012380F83C3003681868B9
:1031500010F0010F03D1186840F0010018602068DA
:10316000036823F400630360222384F83D302023A6
:1031700084F83E300023236461626285638D238579
:10318000284BE362A36B1BB3274ADA63A36B274A7E
:10319000DA64A26B00231364A26B5364A26B936482
:1031A000A26B13652168238D626A1031A06B0CF04D
:1031B000E7FBD8B1202384F83D30002284F83E207C
:1031C000236C43F01003236484F83C20012025E0A5
:1031D000282384F83D30002284F83E20236C43F0FD
:1031E0008003236484F83C20012017E022681368E0
:1031F00043F480631360002384F83C3022685368F2
:1032000043F4407353602268536843F4006353608F
:1032100004E002207047012000E0012010BD0220E0
:10322000FCE700BF0000FFFF394E0008F34D000827
:103230002DE9F04383B004460F46904699460C9E14
:10324000FDF776FE054694F83D00C0B2202803D075
:10325000022003B0BDE8F0830095192301224B49F9
:103260002046FEF7E1FB002840F0898094F83C30CE
:10327000012B00F08680012384F83C3023681A6813
:1032800012F0010F03D11A6842F001021A6022689D
:10329000136823F400631360212384F83D30402336
:1032A00084F83E30002323640A9B6362BDF82C300F
:1032B0006385638D2385364BE362019500964B460B
:1032C000424639462046FEF757FD00285BD1238D44
:1032D000002B35D02A4631462046FEF723FD20BB81
:1032E000626A236812781A61626A531C6362218DD4
:1032F000013989B22185638D9BB2013B9BB2638505
:103300002368586910F0040FE1D00029DFD052780B
:103310001A61636A01336362238D013B2385638DE8
:103320009BB2013B9BB26385D1E7236C042B01D098
:1033300001208EE72268136843F400731360F7E7F7
:103340002A4631462046FEF72DFE50B1236C042B51
:1033500001D001207DE72268136843F400731360F5
:10336000F7E72268136843F400731360202384F89E
:103370003D30002384F83E3084F83C3069E7022079
:1033800067E7022065E7012063E700BF0200100045
:103390000000FFFF2DE9F04387B004460F4690463A
:1033A0009946109EFDF7C4FD054694F83D00C0B255
:1033B000202804D00227384607B0BDE8F0830095E6
:1033C0001923012288492046FEF72EFB002840F0F1
:1033D000438194F83C30012B00F04081012384F8B4
:1033E0003C3023681A6812F0010F03D11A6842F0CA
:1033F00001021A602268136823F400631360222319
:1034000084F83D30402384F83E30002323640E9B33
:103410006362BDF83C306385638D2385734BE36243
:10342000019500964B46424639462046FEF710FD70
:103430000746002840F01481238D5BB9029323686E
:103440005A6902929A690292029A1A6842F40072C8
:103450001A6075E0012B0AD0022B1AD000230593C5
:1034600023685A6905929B690593059B68E0226869
:10347000136823F4806313600023039323685A695D
:1034800003929A690392039A1A6842F400721A60CE
:1034900056E02268136823F480631360226813687F
:1034A00043F4006313600023049323685A69049271
:1034B0009B690493049B43E02A4631462046FEF76D
:1034C0009BFD002840F0CE8023681A69636A1A7059
:1034D000636A01336362238D013B2385638D9BB255
:1034E000013B9BB263852BE00095334600224049A7
:1034F0002046FEF799FA002840F0B680226813684B
:1035000043F40073136023681A69636A1A70626A6D
:10351000531C6362238D013B2385638D9BB2013B6A
:103520009BB2638523681B695370636A01336362CE
:10353000238D013B2385638D9BB2013B9BB2638549
:10354000238D002B7FD0032B54D8012BB4D0022B1A
:10355000CAD000953346002225492046FEF764FA7A
:10356000002840F083802268136823F4806313608E
:1035700023681A69636A1A70636A01336362238D70
:10358000013B2385638D9BB2013B9BB26385009514
:103590003346002216492046FEF746FA002867D136
:1035A0002268136843F40073136023681A69636A1E
:1035B0001A70626A531C6362238D013B2385638DFD
:1035C0009BB2013B9BB2638523681B695370636A9E
:1035D00001336362238D013B2385638D9BB2013BE5
:1035E0009BB26385ACE700BF020010000000FFFF44
:1035F000040001002A4631462046FEF7FDFC002863
:1036000038D123681A69636A1A70626A531C63624C
:10361000238D013B2385638D9BB2013B9BB2638568
:103620002368596911F0040F8AD01B695370636ACB
:1036300001336362238D013B2385638D9BB2013B84
:103640009BB263857CE7202384F83D30002384F817
:103650003E3084F83C30AEE60227ACE60227AAE60C
:103660000127A8E60127A6E60127A4E60127A2E68E
:103670000127A0E601279EE630B482B00024019421
:1036800090F83D40E4B2202C5CD1314C2468E40831
:10369000304DA5FB0454240A04EB840404EB840499
:1036A0000194019C013C0194019C002C3BD00468D6
:1036B000A56915F0020FF4D190F83C50012D45D0CA
:1036C000012580F83C50256815F0010F03D12568CD
:1036D00045F00105256005682C6824F400642C6021
:1036E000212480F83D40402480F83E4000240464BA
:1036F000049D4562BDF814504585458D0585164DE0
:10370000C56241648264C36404650268136843F45B
:103710008073136080F83C400268536843F4E063B0
:10372000536020460FE000230363202280F83D20F1
:1037300080F83E30026C42F02002026480F83C3097
:10374000012000E0022002B030BC70470220FAE7FE
:103750000400002089B5F8140000FFFF30B482B0E7
:103760000024019490F83D40E4B2202C63D1354C04
:103770002468E408344DA5FB0454240A04EB8404B3
:1037800004EB84040194019C013C0194019C002CF5
:1037900042D00468A56915F0020FF4D190F83C50AE
:1037A000012D4CD0012580F83C50256815F0010F03
:1037B00003D1256845F00105256005682C6824F4CF
:1037C00000642C60222480F83D40402480F83E4074
:1037D00000240464049D4562BDF814504585458D60
:1037E00005851A4DC56241648264C364046502683C
:1037F000136843F4806313600268136843F48073B2
:10380000136080F83C40038D23B10268536843F491
:10381000E063536000200FE000230363202280F860
:103820003D2080F83E30026C42F02002026480F8B5
:103830003C30012000E0022002B030BC7047022082
:10384000FAE700BF0400002089B5F8140000FFFF6C
:103850002DE9F04385B005460E46174698460023ED
:103860000393FDF765FB95F83D30DBB2202B40F06C
:10387000CB808146674B1B68DB08674AA2FB0323AA
:103880001B0A03EB830303EB83030393039C013CB9
:103890000394039C002C59D02B689A6912F0020FF4
:1038A000F4D195F83C20012A00F0B280012285F87D
:1038B0003C201A6812F0010F03D11A6842F001028D
:1038C0001A602A68136823F400631360212385F8C3
:1038D0003D30402385F83E3000222A640C9B6B6209
:1038E000BDF834306B856B8D9BB22B854B49E962FB
:1038F0006E64AF64C5F84C802A65002B76D06B6B84
:10390000002B32D0464ADA636B6B464ADA646A6B44
:10391000002313646A6B53646A6B93646A6B136568
:103920002A682B8D1032696A686B0CF029F850B345
:10393000202385F83D30002285F83E202B6C43F093
:1039400010032B6485F83C2001205EE000232B63EC
:10395000202285F83D2085F83E302A6C42F0200276
:103960002A6485F83C3001204FE0202385F83D3063
:10397000002285F83E202B6C43F080032B6485F8F1
:103980003C20012041E0CDF80490232300934346DE
:103990003A4631462846FEF7EFF998B900220292DE
:1039A0002B685969029199690291029985F83C2026
:1039B0005A6842F480725A602A68536843F400637C
:1039C000536022E0686B0CF05AF86A6B0023D363F3
:1039D00029680A6822F480620A602B856B852A6850
:1039E000136823F00103136001200EE0202385F803
:1039F0003D30002285F83E202B6C43F040032B64C1
:103A000085F83C20012000E0022005B0BDE8F083ED
:103A10000220FAE70400002089B5F8140000FFFF37
:103A2000394E0008F34D00082DE9F04387B00546F4
:103A30000E4617469846FDF77BFA0023059395F846
:103A40003D30DBB2202B40F0EA808146784B1B688A
:103A5000DB08784AA2FB03231B0A03EB830303EB77
:103A600083030593059C013C0594059C002C5AD0CA
:103A70002B689A6912F0020FF4D195F83C20012AC4
:103A800000F0D180012285F83C201A6812F0010F65
:103A900003D11A6842F001021A602A68136823F4FD
:103AA00000631360222385F83D30402385F83E30C3
:103AB00000222A640E9B6B62BDF83C306B856B8DD7
:103AC0009BB22B855C49E9626E64AF64C5F84C809B
:103AD0002A65002B00F08580AB6B002B32D0574A53
:103AE000DA63AB6B564ADA64AA6B00231364AA6BE1
:103AF0005364AA6B9364AA6B136529682B8D6A6A59
:103B00001031A86B0BF03CFF50B3202385F83D30FB
:103B1000002285F83E202B6C43F010032B6485F8BF
:103B20003C2001207CE000232B63202285F83D20EF
:103B300085F83E302A6C42F020022A6485F83C3039
:103B400001206DE0202385F83D30002285F83E20DD
:103B50002B6C43F080032B6485F83C2001205FE050
:103B6000CDF804902323009343463A463146284635
:103B7000FEF76EF9D8B92B8D012B2CD02A6853682B
:103B800043F480535360002203922B6859690391D8
:103B900099690391039985F83C205A6842F4807230
:103BA0005A602A68536843F40063536035E0A86B99
:103BB0000BF065FFAA6B0023D36329680A6822F41F
:103BC00080620A602B856B852A68136823F00103E5
:103BD0001360012024E02A68136823F480631360D3
:103BE000D1E7CDF804902323009343463A4631466B
:103BF0002846FEF72DF9C0B9002104912B685A69B7
:103C000004929A690492049A1A6842F400721A6043
:103C1000202385F83D3085F83C10002000E002208C
:103C200007B0BDE8F0830220FAE70120F8E700BF03
:103C30000400002089B5F8140000FFFF394E000889
:103C4000F34D00082DE9F04385B0044688469146BF
:103C50001D46FDF76DF994F83D30DBB2202B03D003
:103C6000022005B0BDE8F08306460090192301222A
:103C700057492046FDF7D8FE002840F0A08094F870
:103C80003C30012B00F09D80012384F83C302368F8
:103C90001A6812F0010F03D11A6842F001021A608B
:103CA0002268136823F400631360242384F83D30F2
:103CB00000272764474BE36240E023681B6813F446
:103CC000807F02D04FF4007323640320C9E7A02350
:103CD00084F83D3022685369C3F340035269C2F34C
:103CE000802294F83DC05FFA8CFCBCF1A00F09D093
:103CF00043B93AB9FDF71CF9801BA842E7D8002D5B
:103D0000E8D1E4E7202384F83D3023685A6912F0B3
:103D1000020F31D11A6842F400721A6023686FF4FE
:103D200080625A6100961923012229492046FDF735
:103D30007BFE002849D101374F4538D222681368ED
:103D400043F48073136000962B4600224FF001115C
:103D50002046FDF769FE0028AFD1236808F0FE0277
:103D60001A61FDF7E5F8064622685369C3F340037C
:103D70005269C2F38022B4E71A6842F400721A60F2
:103D80000023039323685A6903929B690393039B5F
:103D90000096192301220E492046FDF745FE90B9F1
:103DA000202384F83D30002384F83C3059E7202359
:103DB00084F83D30002384F83C30012051E7022094
:103DC0004FE702204DE701204BE7012049E700BF04
:103DD000020010000000FFFFF0B482B0069D002436
:103DE0000194009490F83D40E4B2202C6AD106681A
:103DF000346814F4007F03D1082D01D0012D15D1B2
:103E0000334C2468E408334FA7FB0474240A04EB02
:103E1000840404EB84040094009C013C0094009C06
:103E2000002C39D0B46914F0020FF5D190F83C4061
:103E3000012C4BD0012480F83C40346814F0010F71
:103E400003D1346844F0010434600668346824F413
:103E500000643460212480F83D40102480F83E4006
:103E60000024046442624385438D0385C562416436
:103E7000036B0193019B112B1DD00268136843F45F
:103E800080731360002380F83C3001684A6842F474
:103E9000E0624A60184616E000230363202280F89F
:103EA0003D2080F83E30026C42F02002026480F82F
:103EB0003C30012007E0B5F52A0FDED0B5F12A4FDE
:103EC000E0D1DAE7022002B0F0BC70470220FAE746
:103ED0000400002089B5F814F0B583B00546089EAB
:103EE00000200190009095F83D00C0B2202840F0DD
:103EF000CB802F68386810F4007F03D1082E01D0E2
:103F0000012E15D163480068C008634CA4FB004033
:103F1000000A00EB800000EB80000090009C013C58
:103F20000094009800284CD0B86910F0020FF5D129
:103F300095F83C00012800F0AA80012085F83C009B
:103F4000386810F0010F03D1386840F00100386084
:103F50002C68206820F400602060212085F83D0056
:103F6000102085F83E00002028646A626B856B8D06
:103F70009BB22B85EE6269642A6B0192002B65D09F
:103F80006B6B6BB3454ADA636B6B454ADA646A6BF9
:103F900010646A6B10652A682B8D1032696A686B31
:103FA0000BF0EEFC50B3202385F83D30002285F85D
:103FB0003E202B6C43F010032B6485F83C2001203D
:103FC00063E000232B63202285F83D2085F83E30F6
:103FD0002A6C42F020022A6485F83C30012054E02B
:103FE000202385F83D30002285F83E202B6C43F0DD
:103FF00080032B6485F83C20012046E02A68136882
:1040000043F480631360019B112B18D02A68136856
:1040100043F480731360002385F83C30042E03D0F2
:10402000202E01D0102E04D12A68536843F4006377
:1040300053602A68536843F4407353601BE0B6F53D
:104040002A0FE3D0B6F12A4FE5D1DFE72A681368DB
:1040500043F480631360019B112B0ED02A68136810
:1040600043F480731360002385F83C302A6853685A
:1040700043F4E0635360002007E0B6F52A0FEDD06B
:10408000B6F12A4FEFD1E9E7022003B0F0BD0220DC
:10409000FBE700BF0400002089B5F814394E000882
:1040A000F34D0008F0B482B0069D00240194009402
:1040B00090F83D40E4B2202C40F0918006683468CE
:1040C00014F4007F03D1082D01D0012D15D1474CE8
:1040D0002468E408464FA7FB0474240A04EB840414
:1040E00004EB84040094009C013C0094009C002C90
:1040F00043D0B46914F0020FF5D190F83C40012C84
:1041000071D0012480F83C40346814F0010F03D1D1
:10411000346844F0010434600668346824F40064B0
:104120003460222480F83D40102480F83E40002472
:10413000046442624385438D0385C5624164036B19
:104140000193438D9BB2022B26D00268136843F47F
:10415000806313604FF4E064019B122B38D0016838
:104160000B6843F480730B60002380F83C300168D7
:104170004A6822434A60184632E000230363202243
:1041800080F83D2080F83E30026C42F0200202644C
:1041900080F83C30012023E0202D01D0102DD4D117
:1041A000019B122B07D00268136843F480631360ED
:1041B0004FF4E064D0E70268136823F4806313606F
:1041C0000268136843F4006313604FF44074C3E75C
:1041D000B5F52A0FC3D0B5F12A4FC5D1BFE70220EC
:1041E00002B0F0BC70470220FAE700BF04000020D4
:1041F00089B5F814F0B583B00546089E00200190FB
:10420000009095F83D00C0B2202840F004812F684E
:10421000386810F4007F03D1082E01D0012E15D18B
:104220007F480068C0087F4CA4FB0040000A00EBF8
:10423000800000EB80000090009C013C00940098FE
:1042400000286AD0B86910F0020FF5D195F83C004B
:10425000012800F0E380012085F83C00386810F068
:10426000010F03D1386840F0010038602C682068E5
:1042700020F4006020602C68606820F4805060604A
:10428000222085F83D00102085F83E00002028649B
:104290006A626B856B8D9BB22B85EE6269642A6BBB
:1042A0000192002B00F099806B8D9BB2022B43D0C2
:1042B0002A68136843F480631360202E04D0B6F19B
:1042C0002A4F01D0102E04D12A68536843F480533A
:1042D0005360AB6B002B4CD0534ADA63AB6B534A41
:1042E000DA64AA6B00231364AA6B136529682B8D0B
:1042F0006A6A1031A86B0BF043FB002847D02023DB
:1043000085F83D30002285F83E202B6C43F01003E9
:104310002B6485F83C2001207EE000232B632022C3
:1043200085F83D2085F83E302A6C42F020022A6450
:1043300085F83C3001206FE0202E01D0102EB7D13F
:10434000019B122B05D02A68136843F48063136025
:10435000BFE72A68136823F4806313602A68136830
:1043600043F4006313602A68536843F48053536036
:10437000AFE7202385F83D30002285F83E202B6CE6
:1043800043F080032B6485F83C20012044E0019B2E
:10439000122B19D02A68136843F4807313604FF40A
:1043A0004070002285F83C20042E03D0202E01D03E
:1043B000102E04D129684A6842F400624A602A68D3
:1043C0005368034353601DE0B6F52A0FE2D0B6F1FF
:1043D0002A4FDFD04FF48070E3E72A68136843F474
:1043E00080631360019B122B0ED02A68136843F47C
:1043F00080731360002385F83C302A68536843F4C7
:10440000E0635360002007E0B6F52A0FEDD0B6F167
:104410002A4FEFD1E9E7022003B0F0BD0220FBE70D
:104420000400002089B5F814394E0008F34D000847
:1044300090F83DC00CF0280CBCF1280F38D10029B1
:1044400038D0002A38D030B482B090F83C40012CEB
:1044500034D0012480F83C400468256815F0010F31
:1044600003D1256845F00105256005682C6824F412
:1044700000642C60292480F83D40202480F83E40D0
:104480000024046441624285428D0285C362019426
:1044900003685A6901929A690192019A80F83C4036
:1044A0005A6842F4E0625A60204602B030BC70475D
:1044B0000220704701207047012070470220F4E776
:1044C000F0B583B0044690F83D0000F0280028289D
:1044D00040F0B5800F4616461D46002900F0B28018
:1044E000002A00F0B18094F83C30012B00F0AE803F
:1044F000012384F83C302268536823F440735360EE
:1045000094F83D30DBB22A2B43D094F83D30DBB237
:10451000292B56D023681A6812F0010F03D11A68AC
:1045200042F001021A602268136823F400631360EA
:10453000292384F83D30202384F83E30002323646F
:1045400067626685638D2385E562636B002B4FD0C0
:104550003F4ADA63636B3F4ADA64626B0023136499
:10456000626B13652268238D1032616A606B0BF0F9
:1045700007FA00284AD0202384F83D30002284F82E
:104580003E20236C43F01003236484F83C20012078
:1045900056E023685A6812F4006FBBD0A26B002A61
:1045A000B8D05A6822F400625A60A36B2A4A1A658E
:1045B000A06B0BF064FA0028ACD0A06B036D984799
:1045C000A8E723685A6812F4006FA3D05A6822F44F
:1045D00000625A60636B002B9CD01F4A1A65606BA7
:1045E0000BF04DFA002895D0606B036D984791E76A
:1045F000282384F83D30002284F83E20236C43F0C9
:104600008003236484F83C20012019E022681368A9
:1046100043F4806313600022019223685969019179
:1046200099690191019984F83C205A6842F44072DA
:104630005A602268536843F40063536000E002202C
:1046400003B0F0BD0120FBE70120F9E70220F7E706
:10465000394E0008F34D00085350000890F83DC053
:104660000CF0280CBCF1280F38D1002938D0002AD2
:1046700038D030B482B090F83C40012C34D00124C2
:1046800080F83C400468256815F0010F03D12568C7
:1046900045F00105256005682C6824F400642C6051
:1046A0002A2480F83D40202480F83E400024046401
:1046B00041624285428D0285C362019403685A6952
:1046C00001929A690192019A80F83C405A6842F43A
:1046D000E0625A60204602B030BC7047022070474A
:1046E00001207047012070470220F4E7F0B583B045
:1046F000044690F83D0000F02800282840F0B580DE
:104700000F4616461D46002900F0B280002A00F030
:10471000B18094F83C30012B00F0AE80012384F886
:104720003C302268536823F44073536094F83D3062
:10473000DBB22A2B43D094F83D30DBB2292B56D084
:1047400023681A6812F0010F03D11A6842F00102BF
:104750001A602268136823F4006313602A2384F824
:104760003D30202384F83E30002323646762668551
:10477000638D2385E562A36B002B4FD03F4ADA633C
:10478000A36B3F4ADA64A26B00231364A26B136528
:104790002168238D626A1031A06B0BF0F1F80028BC
:1047A0004AD0202384F83D30002284F83E20236C38
:1047B00043F01003236484F83C20012056E0236872
:1047C0005A6812F4006FBBD0A26B002AB8D05A68A6
:1047D00022F400625A60A36B2A4A1A65A06B0BF0A0
:1047E0004EF90028ACD0A06B036D9847A8E723686A
:1047F0005A6812F4006FA3D05A6822F400625A601B
:10480000636B002B9CD01F4A1A65606B0BF037F965
:10481000002895D0606B036D984791E7282384F8B2
:104820003D30002284F83E20236C43F08003236453
:1048300084F83C20012019E02268136843F4806367
:1048400013600022019223685969019199690191CD
:10485000019984F83C205A6842F400625A60226848
:10486000536843F44073536000E0022003B0F0BD8E
:104870000120FBE70120F9E70220F7E7394E0008A5
:10488000F34D00085350000890F83D30DBB2202B68
:1048900001D002207047282380F83D3003681A6851
:1048A00012F0010F03D11A6842F001021A60026887
:1048B000136843F4806313600268536843F44073E1
:1048C00053600020704790F83D30DBB2282B01D0B8
:1048D0000220704790F83D2090F83E3002F003022D
:1048E00013430363202380F83D30002380F83E30DB
:1048F00001680A6822F480620A6001684A6822F44A
:1049000040724A601846704770477047704708B554
:1049100090F83D30DAB2438D9BB283B1416A0368AF
:1049200009781961436A01334362438D9BB2013BAD
:104930009BB24385438D9BB20BB9292A00D008BD99
:104940000268536823F480635360212303632823A0
:1049500080F83D30FFF7DAFFF1E7704708B590F8CF
:104960003D30DAB2438D9BB283B103681969436A63
:104970001970436A01334362438D9BB2013B9BB282
:104980004385438D9BB20BB92A2A00D008BD02682B
:10499000536823F48063536022230363282380F841
:1049A0003D30FFF7DAFFF1E7704700B583B090F8CC
:1049B0003D3003F02803282B0CD00023019302681C
:1049C0005169019192690192019A80F83C3003B0DB
:1049D0005DF804FB0268536823F48063536011F0B0
:1049E000040F0BD0002311F0800F09D18289002120
:1049F00080F83C101946FFF7D7FFE8E70123F2E7FC
:104A0000028BF4E7704708B590F83D30DBB2C26A1C
:104A1000082A01D0202A01D1282B06D0212B1ED014
:104A200003686FF480625A6108BD1A4BC362026862
:104A3000536823F4E063536003686FF480625A6143
:104A40000268136823F48063136000230363202249
:104A500080F83D2080F83E30FFF7D4FFE4E70D4BAF
:104A6000C36221230363202380F83D30002380F8B4
:104A70003E300268536823F4E063536003686FF4C8
:104A800080625A610268136823F480631360FFF741
:104A90003DFFC9E70000FFFF704708B5C26A90F804
:104AA0003D30DBB2212B00D008BD438D9BB263B1FA
:104AB000426A036812781A61436A01334362438D84
:104AC0009BB2013B9BB24385EEE7082A04D0202A23
:104AD00002D012F5803F19D10268536823F4E063D5
:104AE00053600268136843F4007313600023036388
:104AF000202380F83D3090F83E30DBB2402B15D0BB
:104B0000002380F83E30FFF7FFFECDE702685368D0
:104B100023F4E063536011230363002380F83E30E5
:104B2000202380F83D30FFF7EFFEBDE7002380F83B
:104B30003E30FFF7B1FFB7E708B590F83D30026DA2
:104B40009AB9C36C012B08D0836CC3F307230268A6
:104B50001361036D0133036508BD836C0268DBB22A
:104B60001361036D02330365F6E7DBB2026D012AC0
:104B700023D0026D022AEFD1222B26D0428D92B291
:104B80000AB1212B2AD0428D92B2002AE4D1212BE6
:104B9000E2D10268536823F4E0635360026813684B
:104BA00043F40073136000230363202280F83D2048
:104BB00080F83E30FFF770FFCEE7836C0268DBB20F
:104BC0001361036D01330365C6E70268136843F49C
:104BD00080731360036D01330365BDE7426A0368A8
:104BE00012781A61436A01334362438D9BB2013BE1
:104BF0009BB24385B0E710B590F83D30DBB290F83A
:104C00003E20D2B2C46A018D09B9212B04D0212BD8
:104C10003BD0402A37D010BD082C04D0202C02D025
:104C200014F5803F19D10268536823F4E0635360A0
:104C30000268136843F400731360002303632023A6
:104C400080F83D3090F83E30DBB2402B15D0002389
:104C500080F83E30FFF758FEDDE70268536823F422
:104C6000E063536011230363002380F83E30202368
:104C700080F83D30FFF748FECDE7002380F83E3056
:104C8000FFF70AFFC7E7222BC5D1438D9BB22BB993
:104C90000268536823F480635360BCE790F83E30A9
:104CA000DBB2402B0CD0426A036812781A61436A67
:104CB00001334362438D9BB2013B9BB24385AAE71C
:104CC000FFF73AFFA7E7704708B5C26A438D9BB26A
:104CD000042B14D0438D9BB2032B22D0438D9BB267
:104CE000022B39D003681A69436A1A70436A013388
:104CF0004362438D9BB2013B9BB2438510E0026847
:104D0000536823F48063536003681A69436A1A7016
:104D1000436A01334362438D9BB2013B9BB243859F
:104D200008BD01684B6823F480634B60042A06D0F9
:104D3000022A04D00268136823F4806313600368B6
:104D40001A69436A1A70436A01334362438D9BB206
:104D5000013B9BB24385E3E7012A0BD0102A09D01F
:104D6000042A38D0022A36D00268136843F400734C
:104D7000136004E00268136823F48063136003681F
:104D80001A69436A1A70426A531C4362438D9BB28C
:104D9000013B9BB2438503681B695370436A01332F
:104DA0004362438D9BB2013B9BB2438502685368CB
:104DB00023F440735360202380F83D3090F83E3058
:104DC000DBB2402B0DD0002380F83E30122303636A
:104DD000FFF79BFDA4E70268136843F48063136048
:104DE000CDE7002380F83E300363FFF76CFF97E7C1
:104DF000704710B5846B636B0BB10022DA63A36B51
:104E00000BB10022DA630BF036F8022800D110BD96
:104E10002268136823F480631360002363852022D3
:104E200084F83D2084F83E30236C43F01003236463
:104E30002046FFF7DDFFEAE738B5846B94F83D3094
:104E4000DBB294F83E20D1B2E56A2068426822F4D1
:104E500040724260626B0AB10020D063A26B0AB15B
:104E60000020D06303F02102212A41D003F0220266
:104E7000222A3BD094F83E30002B49D0638D9BB260
:104E8000012B58D02268536823F44073536015F502
:104E9000803F06D0082D04D0B5F12A4F01D0202D37
:104EA00004D12268136843F40073136022685368C6
:104EB00023F4805353602268536823F400635360E3
:104EC00000236385236C002B3BD1202384F83D30E5
:104ED00094F83E30DBB2402B37D0002384F83E30CC
:104EE000122323632046FFF710FD11E02029C1D1D2
:104EF00021684A6822F400624A6000226285292BF8
:104F000007D02A2B0ED02268536843F440735360B5
:104F100038BD21232363282384F83D302046FFF742
:104F2000F5FCF0E722232363282384F83D30204654
:104F3000FFF713FDE7E72268136823F4806313602B
:104F4000A0E72046FFF754FFE2E7002384F83E3055
:104F500023632046FFF7B7FEDAE790F83D30DBB277
:104F6000222B00D0704710B50446438D9BB2032B13
:104F700015D903681A69436A1A70436A0133436298
:104F8000438D9BB2013B9BB24385438D9BB2032B68
:104F90000FD10268536823F48063536009E0C26A4A
:104FA000022A01D0012B05D92268536823F48063BB
:104FB000536010BDFCF7ECFC00282ED1226813686A
:104FC00023F4806313602268536823F4E063536022
:104FD00023681A69636A1A70636A01336362638DB6
:104FE0009BB2013B9BB26385202384F83D3094F84B
:104FF0003E30DBB2402B08D0002384F83E30122331
:1050000023632046FFF781FCD3E7002384F83E307A
:1050100023632046FFF757FECBE72268536823F44B
:10502000E063536023681A69636A1A70636A013324
:105030006362638D9BB2013B9BB26385202384F83E
:105040003D30002384F83E302046FFF7D1FEB0E724
:10505000704700B583B000230193806B90F83D202A
:10506000D2B2324B1B68DB083149A1FB03131B0A88
:1050700003EB8303C3EBC3030193019B43B1019B88
:10508000013B019303681B6813F4007FF5D103E033
:10509000036C43F020030364436B0BB10021D9631D
:1050A000836B0BB10021D96301680B6823F4806323
:1050B0000B6000234385436B0BB100211965836BA3
:1050C0000BB10021196501680B6823F001030B6027
:1050D00090F83D30DBB2602B0ED002F02802282A77
:1050E00014D0202380F83D30002380F83E30FFF7B5
:1050F0007FFE03B05DF804FB202380F83D300023E1
:1051000080F83E300364FFF7A3FFF2E702681368FC
:1051100043F0010313600268136843F48063136073
:1051200000230363282380F83D30E0E704000020DB
:1051300089B5F81410B5044690F83D30DBB290F80C
:105140003E20D2B2102A36D0402A34D003F02802B2
:10515000282A38D02268526812F4006F07D1602BD9
:1051600005D0202384F83D30002384F83E3000230E
:10517000236323685A6812F4006F48D05A6822F4F7
:1051800000625A60626B92F83530DBB2012B20D09E
:10519000444B1365606B0AF072FC002849D022680A
:1051A000136823F001031360202384F83D30606B03
:1051B000036D98473DE0222BC8D121680A6822F48C
:1051C00000620A60C2E700232363282384F83D308D
:1051D000CFE7A36B334A1A65A06B0AF050FC40B3CB
:1051E00023685A6912F0400F05D01A69636A1A7071
:1051F000636A013363622268136823F0010313605A
:10520000202384F83D30A06B036D984711E094F89B
:105210003D20D2B2602A1FD05A6912F0400F05D04B
:105220001A69636A1A70636A013363622046FFF782
:10523000DFFD236C13F00F0F04D02268536823F4B2
:10524000E063536094F83D30DBB2226C12F0040F3F
:1052500001D0282B18D010BD202284F83D20002238
:1052600022645A6912F0400F05D01A69636A1A70F5
:10527000636A013363622268136823F001031360D9
:105280002046FFF7E5FED4E7074BE36200232363E4
:10529000202284F83D2084F83E302046FFF7B2FB00
:1052A000D9E700BF535000080000FFFF90F83E30E0
:1052B0000268916911F0020F24D0DBB2102B23D1C8
:1052C00090F83C30012B21D010B5012380F83C3000
:1052D00000240463602380F83D30136823F4806366
:1052E00013600268136843F4007313604485026816
:1052F000536823F4E063536080F83C40FFF71AFFE3
:10530000204610BD012070470120704702207047E1
:1053100030B583B0044690F83D50EDB20268536852
:1053200023F4E06353600023019303685A690192F8
:105330001A6842F001021A60019B0268136823F4A4
:105340008063136003685A6812F4006F38D0222D0E
:1053500021D02A2D1FD0426B1268526892B242852A
:10536000428D92B21AB1026C42F0040202645A6891
:1053700022F400625A60606B0AF07AFD01281FD0A7
:10538000636B444A1A65606B0AF079FBC0B1606BCD
:10539000036D984714E0A26B1268526892B262855E
:1053A000628D92B21AB1226C42F0040222645A68F1
:1053B00022F400625A60A06B0AF05AFD012842D123
:1053C000638D9BB233B323685A6912F0040F0AD07D
:1053D0001A69636A1A70636A01336362638D9BB2F0
:1053E000013B9BB2638523685A6912F0400F0AD0D3
:1053F0001A69636A1A70636A01336362638D9BB2D0
:10540000013B9BB26385638D9BB21BB1236C43F060
:1054100004032364236C13BB2A2D25D094F83D305C
:10542000DBB2282B29D0236B222B01D0222D19D1BE
:1054300000232363202284F83D2084F83E30204658
:10544000FFF78BFA0EE0A36B124A1A65A06B0AF005
:1054500016FB0028B4D0A06B036D9847B0E7204638
:10546000FFF768FE03B030BD00232363282384F8D0
:105470003D302046FFF771FAD0E7074BE362002387
:105480002363202284F83D2084F83E302046FFF735
:10549000B9FAE7E7535000080000FFFFF8B50446EB
:1054A00002685568C66A90F83E30DBB290F83D104D
:1054B000C8B2102B13D0402B11D0236C002B7AD004
:1054C0005369002113F0020F78D015F4007F75D0D6
:1054D000236C03B191692046FFF767FAF8BDD2F853
:1054E00018C0516911F0010705D1B6F52A0FF5D0A2
:1054F000B6F12A4FF2D017B115F4007F29D111F07F
:10550000080F02D015F4007F2AD111F0020F02D04B
:1055100015F4007F28D11CF0040F31D0526812F42A
:10552000006FDBD111F0800F05D015F4806F02D031
:1055300011F0040F1CD011F0040FCFD015F4007F30
:10554000CCD0212818D0402BC8D12046FFF7F4FA40
:10555000C4E72046FCF759FA2046FCF78DF8BDE772
:105560002046FCF7DDF8B9E72046FCF7EEF8B5E792
:105570002046FFF740FBB1E72046FFF78EFAADE784
:10558000536813F4006FA9D111F0400F05D015F442
:10559000806F02D011F0040F09D011F0040F9DD0DC
:1055A00015F4007F9AD02046FFF78EFB96E7204641
:1055B000FFF7D3FC92E79169536983E713F0100F6B
:1055C00002D015F4007F18D121281AD0292818D02C
:1055D00013F0400F05D015F4806F02D013F0040FC4
:1055E00028D013F0040F3FF479AF15F4007F3FF497
:1055F00075AF2046FCF7BCF970E72046FFF788FE40
:105600006CE713F0800F05D015F4806F02D013F013
:10561000040F0BD013F0040F3FF460AF15F4007FBC
:105620003FF45CAF2046FCF793F957E72046FFF7BD
:105630006EF953E72046FFF791F94FE7F8B50446B6
:1056400003685D695F6890F83E20D2B215F4807FF0
:1056500007D017F4807F3CD06FF480715961012628
:1056600000E0002615F4007F08D017F4807F05D0F5
:1056700046F0020623686FF40071596115F4806FDB
:1056800019D017F4807F16D0638D99B294F83D300D
:10569000DBB2206B202A1ED023686FF48061596131
:1056A00046F00406102A01D0402A04D1226813686B
:1056B00043F40073136015F4006F08D017F4807F73
:1056C00005D046F0080623686FF400625A6186B977
:1056D000F8BD0026C6E70029DED1212B05D0292BF5
:1056E00003D0282BD8D12128D6D12046FFF78BF91B
:1056F000E1E7236C1E4326642046FFF71BFDE7E726
:1057000090F83D00704790F83E007047006C70477D
:1057100090F83D30DBB2202B01D0022070472423CB
:1057200080F83D300268136823F0010313600268BB
:10573000536A23F0100353620268536A194351629B
:105740000268136843F001031360202380F83D30A2
:105750000020704790F83D30DBB2202B01D00220B2
:105760007047242380F83D300268136823F001035A
:1057700013600268536A9BB223F00F03194389B286
:1057800051620268136843F001031360202380F81C
:105790003D30002070470000F0B583B00446066835
:1057A00016F001060DD0964AD2F88C3023F0C06373
:1057B000816B0B43C2F88C30836B002B00F09B8015
:1057C0000026236813F0020F0BD08D4AD2F88C30DC
:1057D00023F0C053E16B0B43C2F88C30E36B03B989
:1057E0000126256815F004050FD0854AD2F88C30C3
:1057F00023F44013216B0B43C2F88C30236BB3F5B9
:10580000801F7AD0002B7AD00025236813F0080F70
:105810000ED07B4AD2F88C3023F44003616B0B43EB
:10582000C2F88C30636BB3F5800F6AD003B90125E1
:10583000236813F0200F66D1236813F0100F04D0F3
:1058400094F858206F4BC3F8E021236813F0800FC1
:1058500008D06B4AD2F8943023F44003E16C0B4338
:10586000C2F89430236813F0400F08D0644AD2F88D
:10587000943023F08063A16C0B43C2F8943023680A
:1058800013F4807F0DD05E4AD2F8943023F0006389
:10589000616D0B43C2F89430636DB3F1006F00F09B
:1058A0009B80236813F4007F08D0554AD2F89430C7
:1058B00023F08053616C0B43C2F89430236813F4D7
:1058C000806F0CD04E4AD2F8943023F00053216DF3
:1058D0000B43C2F89430236DB3F1005F7ED0002EED
:1058E0007CD12368B3F5006F78D0012D00F02581BD
:1058F000002003B0F0BD012663E7012682E7012501
:1059000083E7012692E7002301933D4B1A6C42F096
:1059100080521A641B6C03F080530193019B3A4A36
:10592000136843F480731360FBF702FB0746364BA2
:105930001B6813F4807F06D1FBF7FAFAC01B02281C
:10594000F5D90320D5E72E4B1B6F13F4407314D009
:10595000226C02F440729A420FD0294B1A6F22F443
:1059600040722A490120C1F8400E0020C1F8400EC3
:105970001A671B6F13F0010F12D1236C03F44072EE
:10598000B2F5407F1DD01E4A936823F4F81393604C
:105990001B490B6F226CC2F30B0213430B674BE7DF
:1059A000FBF7C6FA0746164B1B6F13F0020FE4D144
:1059B000FBF7BEFAC01B41F288339842F3D90320AB
:1059C00097E70F498A6822F4F81223F0704323F412
:1059D000407313438B60DBE7012562E70B4B00222A
:1059E0009A66FBF7A5FA0646054B1B6813F0006F95
:1059F0000ED0FBF79DFA801B0228F5D9032078E72B
:105A0000003802400010474200700040000047424A
:105A1000236813F0010F01D0A26B22B113F0020F23
:105A200015D0E36B9BB9774AD2F88400D2F8841082
:105A30006368A66843EA861300F44030034301F02C
:105A400070610B43616943EA0173C2F884302368D3
:105A500013F0040F03D0226BB2F5801F06D013F0B1
:105A6000080F20D0636BB3F5800F1CD1654AD2F8C4
:105A70008400D2F884106368A66843EA861300F4B1
:105A800040300343206943EA006301F0E0410B43E7
:105A9000C2F88430D2F88C3023F01F03A16A013998
:105AA0000B43C2F88C30236813F4806F03D0236D4E
:105AB000B3F1005F28D0236813F4006F11D063683E
:105AC000A26843EA8213E2685208013A43EA0243B9
:105AD000226943EA0263626943EA0273494AC2F8EF
